:100000000EC01DC01DC01BC026C019C018C017C01F
:1000100016C015C014C013C012C011C010C01124E6
:100020001FBECFE5D2E0DEBFCDBF10E0A0E6B0E05E
:1000300001C01D92A236B107E1F72AD06FC0E0CF10
:100040001F920F920FB60F921124C39A0F900FBEFA
:100050000F901F9018951F920F920FB60F921124B8
:100060008F9389B58F3F39F484E089BD82E088BDE4
:1000700083B7826006C08FEF89BD80E888BD83B7F3
:100080008D7F83BF8F910F900FBE0F901F9018959B
:10009000F89485B7877E806185BF16B818BABB9A79
:1000A000C39A10926100109260000EC02FE332E4F8
:1000B0004FE0215030404040E1F700C00000019681
:1000C0009093610080936000809160009091610046
:1000D0008A30910558F38AB583638ABD83B78960F6
:1000E00083BF8FEF89BD80E888BDB99A80B78A60E9
:1000F00080BF89B7846089BF87B387BB8BB78062B5
:100100008BBFAC9A7894B499FECFC39885B78062C0
:1001100085BF889585B78F7D85BFF5CFF894FFCFD4
:00000001FF
