:100000000EC028C054C026C053C024C023C022C084
:1000100021C020C01FC01EC01DC01CC01BC0112499
:100020001FBECFE5D2E0DEBFCDBF10E0A0E6B0E05E
:10003000E2E9F1E002C005900D92A837B107D9F7C7
:1000400010E0A8E7B0E001C01D92AA37B107E1F7C0
:1000500042D09DC0D5CF2FB7F8949AE0E8B3EE7F99
:10006000E8BB00000000000000000000EDECF0E044
:100070003197F1F70000E8B380FDE16080FFEE7F8B
:10008000E8BB089487959A9589F72FBF0895CF9379
:10009000DF93C82FD92F01C0DEDF89918823E1F7D4
:1000A0008DE0D9DF8AE0D7DFDF91CF9108951895F1
:1000B0001F920F920FB60F9211248F9389B58F3F25
:1000C00011F488EC01C08FEF89BD8F910F900FBEA6
:1000D0000F901F901895DF93CF93CDB7DEB7689739
:1000E0000FB6F894DEBF0FBECDBFF894DE011196B7
:1000F000E0E6F0E088E101900D928150E1F7C09ACE
:10010000B89ACE010196C3DFBA9AC29A10927900CA
:10011000109278000EC02FE332E44FE021503040BF
:100120004040E1F700C00000019690937900809371
:10013000780080917800909179008A30910558F389
:100140008AB583638ABD83B7896083BF8FEF89BD1A
:1001500080E888BD82E087BB80B78A6080BF89B7AE
:10016000846089BF87B387BB8BB780628BBFAC9A33
:1001700085B7877E806185BF7894B499FECF85B7B7
:10018000806285BF889585B78F7D85BFF6CFF8944F
:02019000FFCF9F
:100192002D2D2054696E79383520416C61726D20A5
:0801A200426F6F74202D2D0047
:00000001FF
